:100000000C9462000C948A000C948A000C948A0070
:100010000C948A000C948A000C948A000C948A0038
:100020000C948A000C948A000C948A000C948A0028
:100030000C948A000C948A000C948A000C948A0018
:100040000C9463040C948A000C9490020C94C202E9
:100050000C948A000C948A000C948A000C948A00F8
:100060000C948A000C948A00000000080002010031
:100070000003040700000000000000000102040863
:100080001020408001020408102001020408102002
:10009000040404040404040402020202020203032E
:1000A00003030303000000002300260029000000D2
:1000B0000000250028002B0000000000240027007D
:1000C0002A00F20211241FBECFEFD8E0DEBFCDBF61
:1000D00011E0A0E0B1E0E6E8FEE002C005900D927C
:1000E000A631B107D9F721E0A6E1B1E001C01D9228
:1000F000AC3BB207E1F710E0C4ECD0E004C02297BB
:10010000FE010E942E07C23CD107C9F70E94540489
:100110000C9441070C94000026E040E855E260E0B2
:1001200070E086E191E00E942E0261E08EE00E9484
:100130001B0661E08FE00E941B0661E082E10E94E5
:10014000E20561E082E00E94E20561E083E00E9456
:10015000E20561E084E00E94E20561E085E00C9444
:10016000E20560E082E10E941B0682E090E00E94CE
:10017000F80461E082E10E941B0685E090E00E94A5
:10018000F80460E082E10E941B0620E432E44FE0C4
:1001900050E061E083E10E945106CB016BE370E027
:1001A0000E94D706CB010895EF92FF920F931F9301
:1001B000CF93DF930E94B1000B970CF454C08EE0F4
:1001C0000E943D057C018FE00E943D05EC0162E349
:1001D00070E080E090E00E94D00487010C1B1D0BB2
:1001E0004AE050E0B70186E191E00E94330461E00B
:1001F00071E086E191E00E9473034AE050E0BE01A5
:1002000086E191E00E943B04023E8FEF180784F4E0
:1002100061E084E00E941B066FE570E085E00E94CB
:100220005A0560E082E00E941B0660E070E019C0A1
:100230000F3111053CF060E082E00E941B0660EA8D
:1002400070E017C061E084E00E941B066FE570E07B
:1002500085E00E945A0560E082E00E941B0660EA89
:1002600070E083E010C060E082E00E941B0660E066
:1002700070E083E00E945A0560E084E00E941B0663
:1002800060E070E085E0DF91CF911F910F91FF90CA
:10029000EF900C945A05FC01818D228D90E0805CDA
:1002A0009F4F821B91098F7399270895FC01918DAF
:1002B000828D981731F0828DE80FF11D858D90E0C9
:1002C00008958FEF9FEF0895FC01918D828D98170F
:1002D00061F0828DDF01A80FB11D5D968C91928D2A
:1002E0009F5F9F73928F90E008958FEF9FEF089527
:1002F00088EE92E0892B49F080E090E0892B29F08C
:100300000E94E80281110C9400000895FC01848D84
:10031000DF01A80FB11DA35ABF4F2C91848D90E02F
:1003200001968F739927848FA689B7892C93A0890A
:10033000B1898C9180648C93938D848D981306C0C1
:100340000288F389E02D80818F7D80830895CF938B
:10035000DF93EC01888D8823C9F0EA89FB898081CD
:1003600085FD05C0A889B9898C9186FD0FC00FB69F
:1003700007FCF5CF808185FFF2CFA889B9898C91E0
:1003800085FFEDCFCE010E948601E7CFDF91CF91AF
:100390000895CF92DF92FF920F931F93CF93DF9335
:1003A0001F92CDB7DEB76C01DC015B969C915B9729
:1003B0005C968C915C97981307C05096ED91FC91D8
:1003C0005197808185FD32C0F601038D10E00F5FEB
:1003D0001F4F0F731127F02EF601848DF81211C0F4
:1003E0000FB607FCF9CFD6015096ED91FC915197CD
:1003F000808185FFF1CFC60169830E9486016981F2
:10040000EBCF838DE80FF11DE35AFF4F6083D601D8
:100410005B960C935B975296ED91FC91539780817C
:100420008062808381E058968C930DC0D6015696E9
:10043000ED91FC91579760835096ED91FC91519707
:1004400080818064808381E090E00F90DF91CF9184
:100450001F910F91FF90DF90CF900895BF92CF92A0
:10046000DF92EF92FF92CF93DF93EC016A017B0161
:10047000B22EE889F98982E08083411581EE580720
:1004800061057105A1F060E079E08DE390E0A701DE
:1004900096010E94EB0621503109410951095695F8
:1004A000479537952795211580E1380798F0E88919
:1004B000F989108260E874E88EE190E0A701960166
:1004C0000E94EB0621503109410951095695479583
:1004D00037952795EC85FD853083EE85FF85208354
:1004E000188EEC89FD89B082EA89FB898081806160
:1004F0008083EA89FB89808188608083EA89FB891F
:10050000808180688083EA89FB8980818F7D8083F8
:10051000DF91CF91FF90EF90DF90CF90BF90089543
:100520001F920F920FB60F9211242F938F939F93C8
:10053000EF93FF93E0912601F09127018081E091F4
:100540002C01F0912D0182FD12C0908180912F012C
:100550008F5F8F7320913001821751F0E0912F014E
:10056000F0E0EA5EFE4F958F80932F0101C08081FD
:10057000FF91EF919F918F912F910F900FBE0F9050
:100580001F9018951F920F920FB60F9211242F9360
:100590003F934F935F936F937F938F939F93AF930B
:1005A000BF93EF93FF9386E191E00E948601FF9154
:1005B000EF91BF91AF919F918F917F916F915F91DB
:1005C0004F913F912F910F900FBE0F901F90189554
:1005D00086E191E00E944B0121E0892B09F420E0A3
:1005E000822F0895109219011092180188EE93E05D
:1005F000A0E0B0E080931A0190931B01A0931C012E
:10060000B0931D0189E091E090931701809316014A
:1006100085EC90E0909323018093220184EC90E09C
:10062000909325018093240180EC90E09093270122
:100630008093260181EC90E090932901809328011A
:1006400082EC90E090932B0180932A0186EC90E05D
:1006500090932D0180932C0110922F011092300164
:1006600010923101109232010895CF92DF92EF92F1
:10067000FF920F931F93CF93DF936C017A01EB01ED
:10068000E60EF71E00E010E0CE15DF0561F069917F
:10069000D601ED91FC910190F081E02DC601099504
:1006A000080F191FF1CFC801DF91CF911F910F9152
:1006B000FF90EF90DF90CF9008956115710581F064
:1006C000DB010D900020E9F7AD0141505109461BB7
:1006D000570BDC01ED91FC910280F381E02D099430
:1006E00080E090E008950C945D03DC01ED91FC91B5
:1006F0000190F081E02D09940F931F93CF93DF9326
:10070000EC016DE00E9475038C016AE0CE010E944D
:100710007503800F911FDF91CF911F910F91089565
:100720008F929F92AF92BF92CF92DF92EF92FF9201
:100730000F931F93CF93DF93CDB7DEB7A1970FB67B
:10074000F894DEBF0FBECDBF7C01C42EE52FCB01D8
:10075000D22E19A221E02D1510F02AE0D22E8E0102
:100760000F5D1F4F8D2C912CA12CB12C6C2D7E2F49
:10077000A50194010E94EB068C2DD29E80191124B4
:10078000015011098A3014F4805D01C0895CF801C0
:100790008083211531054105510521F0C22EE32F3B
:1007A000CA01E4CFB801C7010E945D03A1960FB64C
:1007B000F894DEBF0FBECDBFDF91CF911F910F9197
:1007C000FF90EF90DF90CF90BF90AF909F908F9071
:1007D0000895CF92DF92EF92FF920F931F93CF93E2
:1007E000DF93EC016A017B012115310579F4E88181
:1007F000F9810190F081E02D642FDF91CF911F915D
:100800000F91FF90EF90DF90CF9009942A3031053F
:10081000E9F477FF1AC06DE20E9475038C0144274A
:100820005527BA014C195D096E097F092AE0CE01EE
:100830000E949003800F911FDF91CF911F910F9124
:10084000FF90EF90DF90CF9008952AE0B701A601C6
:10085000CE01DF91CF911F910F91FF90EF90DF902C
:10086000CF900C9490039A01AB01662757FD6095D9
:10087000762F0C94E9030F931F93CF93DF93EC0132
:100880009A01AB01662757FD6095762F0E94E90318
:100890008C01CE010E947C03800F911FDF91CF91CC
:1008A0001F910F91089508950E9402050E9453041C
:1008B0000E948C00C8E7D1E00E94D4002097E1F3A9
:1008C0000E947801F9CF1F920F920FB60F92112458
:1008D0002F933F938F939F93AF93BF938091B401D6
:1008E0009091B501A091B601B091B7013091B301DB
:1008F00023E0230F2D3720F40196A11DB11D05C063
:1009000026E8230F0296A11DB11D2093B301809309
:10091000B4019093B501A093B601B093B701809153
:10092000B8019091B901A091BA01B091BB010196B3
:10093000A11DB11D8093B8019093B901A093BA0194
:10094000B093BB01BF91AF919F918F913F912F9138
:100950000F900FBE0F901F9018953FB7F89480919D
:10096000B8019091B901A091BA01B091BB0126B52F
:10097000A89B05C02F3F19F00196A11DB11D3FBFD7
:100980006627782F892F9A2F620F711D811D911D67
:1009900042E0660F771F881F991F4A95D1F7089587
:1009A000CF92DF92EF92FF92CF93DF936B017C01A6
:1009B0000E94AD04EB01C114D104E104F10489F0FB
:1009C0000E94D6060E94AD046C1B7D0B683E7340EE
:1009D00090F381E0C81AD108E108F108C851DC4F52
:1009E000EACFDF91CF91FF90EF90DF90CF90089505
:1009F000019739F0880F991F880F991F0297019767
:100A0000F1F70895789484B5826084BD84B58160DF
:100A100084BD85B5826085BD85B5816085BDEEE606
:100A2000F0E0808181608083E1E8F0E010828081E5
:100A300082608083808181608083E0E8F0E0808153
:100A400081608083E1EBF0E0808184608083E0EB73
:100A5000F0E0808181608083EAE7F0E0808184605B
:100A600080838081826080838081816080838081B7
:100A7000806880831092C10008958E3008F08E50F7
:100A800087702091000190E4299F90011124822B0E
:100A900080937C0080917A00806480937A008091BA
:100AA0007A0086FDFCCF809178002091790090E05B
:100AB000922B08951F93CF93DF93182FEB0161E0E2
:100AC0000E94E205209711F460E004C0CF3FD105F9
:100AD00039F461E0812FDF91CF911F910C941B06B7
:100AE000E12FF0E0E859FF4FE491E330F9F048F4EA
:100AF000E130B9F0E230A1F584B5806284BDC8BDB3
:100B000034C0E730E9F0E83019F1E43049F580917C
:100B10008000806280938000D0938B00C0938A0015
:100B200024C084B5806884BDC7BD1FC0809180008B
:100B3000806880938000D0938900C093880015C09E
:100B40008091B00080688093B000C093B3000DC066
:100B50008091B00080628093B000C093B40005C063
:100B6000C038D1050CF0B5CFAFCFDF91CF911F9139
:100B70000895833081F028F4813099F08230A1F01B
:100B800008958730A9F08830B9F08430D1F480918D
:100B900080008F7D03C0809180008F7780938000DC
:100BA000089584B58F7702C084B58F7D84BD089584
:100BB0008091B0008F7703C08091B0008F7D8093CB
:100BC000B0000895CF93DF9390E0FC01E458FF4F0D
:100BD0002491FC01E057FF4F8491882349F190E074
:100BE000880F991FFC01E854FF4FA591B4918255DD
:100BF0009F4FFC01C591D4919FB7611108C0F89433
:100C00008C91209582238C93888182230AC0623044
:100C100051F4F8948C91322F309583238C938881F2
:100C2000822B888304C0F8948C91822B8C939FBF75
:100C3000DF91CF9108950F931F93CF93DF931F926E
:100C4000CDB7DEB7282F30E0F901E859FF4F849186
:100C5000F901E458FF4F1491F901E057FF4F049157
:100C60000023C9F0882321F069830E94B9056981B6
:100C7000E02FF0E0EE0FFF1FE255FF4FA591B4917A
:100C80009FB7F8948C91611103C01095812301C026
:100C9000812B8C939FBF0F90DF91CF911F910F916C
:100CA0000895CF92DF92EF92FF920F931F93CF930D
:100CB000DF9390E0FC01E458FF4FD491FC01E05732
:100CC000FF4F7491611102C0C0E001C0CD2FDA0165
:100CD000C901BF70672F70E0660F771F6C557F4F9B
:100CE00000E010E09801FB01E590F490F7014081ED
:100CF0004D234C131EC0680179014FEFC41AD40A6A
:100D0000E40AF40A081719072A073B0709F442C046
:100D100097018601E8CF68017901FFEFCF1ADF0A5A
:100D2000EF0AFF0A081719072A073B0799F19701ED
:100D30008601FB01E590F490F70140814D234C13AF
:100D4000EACF801B910BA20BB30B20E030E0A9018E
:100D5000FB01E590F490F701F080FD22FC120AC03F
:100D6000281739074A075B07A9F02F5F3F4F4F4FFE
:100D70005F4FEECFA8E1B0E00E940D07605F7F4FAC
:100D80008F4F9F4F24E096958795779567952A9585
:100D9000D1F703C060E070E0CB01DF91CF911F91EC
:100DA0000F91FF90EF90DF90CF900895089597FBFB
:100DB000072E16F4009407D077FD09D00E9418077B
:100DC00007FC05D03EF4909581959F4F089570954E
:100DD00061957F4F0895A1E21A2EAA1BBB1BFD014E
:100DE0000DC0AA1FBB1FEE1FFF1FA217B307E4070A
:100DF000F50720F0A21BB30BE40BF50B661F771F62
:100E0000881F991F1A9469F7609570958095909541
:100E10009B01AC01BD01CF0108950E943207A59F3F
:100E2000900DB49F900DA49F800D911D11240895E5
:100E3000AA1BBB1B51E107C0AA1FBB1FA617B70700
:100E400010F0A61BB70B881F991F5A95A9F780951C
:100E50009095BC01CD010895EE0FFF1F0590F49110
:100E6000E02D0994A29FB001B39FC001A39F700D14
:100E7000811D1124911DB29F700D811D1124911DA2
:060E80000895F894FFCF75
:100E860001202D200000000000C90135034B01643C
:060E9600015601A7010056
:00000001FF
