:100000000C9462000C948A000C948A000C948A0070
:100010000C948A000C948A000C948A000C948A0038
:100020000C948A000C948A000C948A000C948A0028
:100030000C948A000C948A000C948A000C948A0018
:100040000C9438030C948A000C9425010C946C01D8
:100050000C948A000C948A000C948A000C948A00F8
:100060000C948A000C948A000000000024002700F1
:100070002A0000000000250028002B0000000000DE
:1000800023002600290004040404040404040202DA
:100090000202020203030303030301020408102007
:1000A0004080010204081020010204081020000012
:1000B0000007000201000003040600000000000029
:1000C0000000A90211241FBECFEFD8E0DEBFCDBFD4
:1000D00011E0A0E0B1E0ECECFBE002C005900D9275
:1000E000A231B107D9F711E0A2E1B1E001C01D9240
:1000F000AD3BB107E1F710E0C4ECD0E004C02297BB
:10010000FE010E94E005C23CD107C9F70E94290305
:100110000C94E4050C94000082E160E00E948604E7
:1001200082E090E00E94800382E161E00E94860408
:1001300085E090E00E94800382E160E00E948604F6
:1001400083E161E020E432E44FE050E00E94DA0411
:10015000DC01CB016BE370E00E949505CB010895B3
:100160000F931F93CF93DF930E948C000B9784F122
:100170008EE00E94C503EC018FE00E94C5038C0154
:10018000CF3FD1054CF484E061E00E948604CF5754
:10019000D04085E0BE0107C084E060E00E94860494
:1001A00085E060E070E00E94E7030F3F110554F422
:1001B00082E060E00E9486046FE770E0601B710BD4
:1001C00083E016C082E060E00E94860483E00EC0F7
:1001D00082E060E00E94860483E060E070E00E94BC
:1001E000E70384E060E00E94860485E060E070E060
:1001F0000E94E703DF91CF911F910F91089582E153
:1002000091E040E855E260E070E00E949C018EE0E1
:1002100062E00E9486048FE062E00E94860482E130
:1002200061E00E94470482E061E00E94470483E0AD
:1002300061E00E94470484E061E00E94470485E099
:1002400061E00E944704089508951F920F920FB62F
:100250000F9211242F933F934F938F939F93EF937C
:10026000FF938091C00082FD19C04091C60080912B
:100270003001282F30E02F5F3F4F2F733070809177
:10028000310190E02817390759F0E0913001F0E092
:10029000EE5EFE4F42A32093300102C08091C60063
:1002A000FF91EF919F918F914F913F912F910F90DF
:1002B0000FBE0F901F901895809130012091310151
:1002C00090E0805C9F4F821B91098F739070892B07
:1002D00011F00E94240108951F920F920FB60F9201
:1002E00011242F938F939F93EF93FF93909132015B
:1002F00080913301981731F48091C1008F7D8093F4
:10030000C10010C0E0913301F0E0EC58FE4F2081B5
:100310008091330190E001968F7390708093330148
:100320002093C600FF91EF919F918F912F910F9095
:100330000FBE0F901F901895AF92BF92DF92EF9271
:10034000FF920F931F93CF93DF93EC017A018B0100
:10035000DD24403081EE580780E0680780E07807B0
:1003600011F0DD24D39491E0A92EB12CE889F9890C
:10037000DD2069F0C5010C8C02C0880F991F0A941A
:10038000E2F7808360E079E08DE390E005C01082C1
:1003900060E874E88EE190E0A80197010E94A8054A
:1003A000215030404040504056954795379527950D
:1003B00080E12030380720F0DD2011F0DD24D6CF99
:1003C000EC85FD853083EE85FF8520831D8EEA89CF
:1003D000FB89408121E030E0C901088C02C0880F10
:1003E000991F0A94E2F7482B4083EA89FB894081F0
:1003F000C901098C02C0880F991F0A94E2F7482BA3
:100400004083EA89FB894081C9010A8C02C0880FB8
:10041000991F0A94E2F7482B4083EA89FB8980817F
:100420000B8C02C0220F331F0A94E2F72095282379
:100430002083DF91CF911F910F91FF90EF90DF907C
:10044000BF90AF900895FC01268D878D30E0205C31
:100450003F4F281B31092F733070C9010895FC01EB
:10046000968D878D981719F42FEF3FEF06C0878D73
:10047000E80FF11D82A1282F30E0C9010895DC01A9
:100480005E969C915E975F968C915F97981719F492
:100490002FEF3FEF10C05F968C915F97FD01E80F43
:1004A000F11D92A15F968C915F978F5F8F735F961E
:1004B0008C93292F30E0C9010895DC015D968C9161
:1004C0005D97882339F05096ED91FC91519780818A
:1004D00086FFF9CF5D961C920895DC0190968C9171
:1004E0009097282F30E02F5F3F4F2F7330709196F9
:1004F0008C91919790E028173907C9F390968C91C9
:100500009097FD01E80FF11DEE59FF4F6083909623
:100510002C9390975296ED91FC915397208181E016
:1005200090E05B960C905B9702C0880F991F0A942D
:10053000E2F7282B208381E05D968C935D9750969F
:10054000ED91FC91519780818064808381E090E0FF
:100550000895109215011092140188EE93E0A0E026
:10056000B0E08093160190931701A0931801B09307
:10057000190185E091E0909313018093120110928C
:1005800033018091330180933201109231018091C7
:1005900031018093300185EC90E090931F018093AE
:1005A0001E0184EC90E0909321018093200180EC67
:1005B00090E0909323018093220181EC90E090934E
:1005C00025018093240182EC90E090932701809391
:1005D000260186EC90E0909329018093280184E025
:1005E00080932A0183E080932B0187E080932C0184
:1005F00085E080932D0181E080932E010895CF92B4
:10060000DF92EF92FF920F931F93CF93DF937C01C2
:100610006B018A01C0E0D0E00FC0D6016D916D0181
:10062000D701ED91FC910190F081E02DC701099572
:10063000C80FD91F015010400115110571F7CE01E7
:10064000DF91CF911F910F91FF90EF90DF90CF90AE
:100650000895CF93DF930E948A030E94FF00CCE5A8
:10066000D1E00E94B0002097E1F30E945C01F9CF35
:100670001F920F920FB60F9211242F933F938F93D7
:100680009F93AF93BF938091B8019091B901A091CE
:10069000BA01B091BB013091BC010196A11DB11D01
:1006A000232F2D5F2D3720F02D570196A11DB11D51
:1006B0002093BC018093B8019093B901A093BA0133
:1006C000B093BB018091B4019091B501A091B601A6
:1006D000B091B7010196A11DB11D8093B401909313
:1006E000B501A093B601B093B701BF91AF919F91AF
:1006F0008F913F912F910F900FBE0F901F901895E3
:10070000019739F0880F991F880F991F0297019759
:10071000F1F70895789484B5826084BD84B58160D2
:1007200084BD85B5826085BD85B5816085BDEEE6F9
:10073000F0E0808181608083E1E8F0E010828081D8
:1007400082608083808181608083E0E8F0E0808146
:1007500081608083E1EBF0E0808184608083E0EB66
:10076000F0E0808181608083EAE7F0E0808184604E
:1007700080838081826080838081816080838081AA
:10078000806880831092C1000895982F8E3008F001
:100790009E509770809100018295880F880F807C11
:1007A000892B80937C0080917A00806480937A000A
:1007B00080917A0086FDFCCF2091780040917900ED
:1007C000942F80E030E0282B392BC90108951F9326
:1007D000CF93DF93182FEB0161E00E94470420972D
:1007E00009F44AC0CF3FD10509F449C0E12FF0E038
:1007F000E255FF4F84918330C1F0843028F481307A
:1008000051F08230B1F50CC0863019F1873049F1D2
:10081000843079F514C084B5806884BDC7BD33C009
:1008200084B5806284BDC8BD2EC080918000806880
:1008300080938000D0938900C093880024C0809169
:100840008000806280938000D0938B00C0938A00E8
:100850001AC08091B00080688093B000C093B3004C
:1008600012C08091B00080628093B000C093B40049
:100870000AC0C038D1051CF4812F60E002C0812F6E
:1008800061E00E948604DF91CF911F910895CF937C
:10089000DF93482F50E0CA0186569F4FFC013491E8
:1008A0004A575F4FFA018491882369F190E0880FDD
:1008B000991FFC01E859FF4FA591B491FC01EE5836
:1008C000FF4FC591D491662351F42FB7F8948C91C2
:1008D000932F909589238C93888189230BC0623054
:1008E00061F42FB7F8948C91932F909589238C9372
:1008F0008881832B88832FBF06C09FB7F8948C9183
:10090000832B8C939FBFDF91CF910895482F50E0A8
:10091000CA0182559F4FFC012491CA0186569F4F00
:10092000FC0194914A575F4FFA013491332309F443
:1009300040C0222351F1233071F0243028F42130BB
:10094000A1F0223011F514C02630B1F02730C1F0EB
:100950002430D9F404C0809180008F7703C0809147
:1009600080008F7D8093800010C084B58F7702C097
:1009700084B58F7D84BD09C08091B0008F7703C09E
:100980008091B0008F7D8093B000E32FF0E0EE0FF8
:10099000FF1FEE58FF4FA591B4912FB7F89466232F
:1009A00021F48C919095892302C08C91892B8C9392
:1009B0002FBF08958F929F92AF92BF92CF92DF92F6
:1009C000EF92FF920F931F93CF93DF93A82FB0E086
:1009D000CD0186569F4FFC018490AA57BF4FFD0161
:1009E0008491662311F4992401C0982C6FEFA62EF0
:1009F0006FEFB62E6FEFC62E6FE0D62EA222B32277
:100A0000C422D522682F70E0660F771F64587F4F8D
:100A1000EE24FF248701FB01A591B4910BC0EA14D9
:100A2000FB040C051D0509F44EC00894E11CF11CE3
:100A3000011D111D8C918821891589F30CC0EA14C0
:100A4000FB040C051D0509F43EC00894E11CF11CD3
:100A5000011D111D03C0FB01A591B4918C9188214A
:100A6000891569F720E030E040E050E0FB01C591D6
:100A7000D4910FC0DA01C9018E0D9F1DA01FB11FB7
:100A80008A159B05AC05BD05F1F02F5F3F4F4F4F19
:100A90005F4F88818821891569F3CA01B90125E171
:100AA00030E040E050E00E9476059B01AC01205F01
:100AB0003F4F4F4F5F4F84E05695479537952795A9
:100AC0008A95D1F704C020E030E040E050E0B90161
:100AD000CA01DF91CF911F910F91FF90EF90DF90AE
:100AE000CF90BF90AF909F908F900895629FD0015C
:100AF000739FF001829FE00DF11D649FE00DF11DD9
:100B0000929FF00D839FF00D749FF00D659FF00D87
:100B10009927729FB00DE11DF91F639FB00DE11D74
:100B2000F91FBD01CF011124089597FB092E072657
:100B30000AD077FD04D02ED006D000201AF470958C
:100B400061957F4F0895F6F7909581959F4F089591
:100B5000A1E21A2EAA1BBB1BFD010DC0AA1FBB1FC1
:100B6000EE1FFF1FA217B307E407F50720F0A21B33
:100B7000B30BE40BF50B661F771F881F991F1A94A0
:100B800069F760957095809590959B01AC01BD01CA
:100B9000CF010895AA1BBB1B51E107C0AA1FBB1FB1
:100BA000A617B70710F0A61BB70B881F991F5A95F9
:100BB000A9F780959095BC01CD010895EE0FFF1F18
:0C0BC0000590F491E02D0994F894FFCF0B
:100BCC0001000000006D02FF0223023F022F025DB4
:020BDC00020015
:00000001FF
