:100000000C9462000C948A000C948A000C948A0070
:100010000C948A000C948A000C948A000C948A0038
:100020000C948A000C948A000C948A000C948A0028
:100030000C948A000C948A000C948A000C948A0018
:100040000C9407030C948A000C94F4000C943B016C
:100050000C948A000C948A000C948A000C948A00F8
:100060000C948A000C948A000000000024002700F1
:100070002A0000000000250028002B0000000000DE
:1000800023002600290004040404040404040202DA
:100090000202020203030303030301020408102007
:1000A0004080010204081020010204081020000012
:1000B0000007000201000003040600000000000029
:1000C0000000780211241FBECFEFD8E0DEBFCDBF05
:1000D00011E0A0E0B1E0E8E3FBE002C005900D9282
:1000E000A031B107D9F711E0A0E1B1E001C01D9244
:1000F000AB3BB107E1F710E0C4ECD0E004C02297BD
:10010000FE010E949605C23CD107C9F70E94F80281
:100110000C949A050C94000082E160E00E943B047C
:1001200082E090E00E944F0382E161E00E943B0484
:1001300085E090E00E944F0382E160E00E943B0472
:1001400083E161E020E432E44FE050E00E948F045C
:10015000DC01CB016BE370E00E944B05CB010895FD
:100160000E948C000B975CF082E060E00E943B04F0
:1001700083E061E00E943B0484E061E00AC082E029
:1001800060E00E943B0483E060E00E943B0484E066
:1001900060E00E943B0485E060E00E943B0464E66E
:1001A00070E080E090E00E949403089580E191E087
:1001B00040E855E260E070E00E946B0182E161E09E
:1001C0000E94FC0382E061E00E94FC0383E061E0A6
:1001D0000E94FC0384E061E00E94FC0385E061E092
:1001E0000E94FC03089508951F920F920FB60F927C
:1001F00011242F933F934F938F939F93EF93FF93EC
:100200008091C00082FD19C04091C60080912E01EE
:10021000282F30E02F5F3F4F2F73307080912F01D8
:1002200090E02817390759F0E0912E01F0E0E05FE7
:10023000FE4F42A320932E0102C08091C600FF9181
:10024000EF919F918F914F913F912F910F900FBE02
:100250000F901F90189580912E0120912F0190E012
:10026000805C9F4F821B91098F739070892B11F0D6
:100270000E94F30008951F920F920FB60F9211245F
:100280002F938F939F93EF93FF93909130018091E1
:100290003101981731F48091C1008F7D8093C100A6
:1002A00010C0E0913101F0E0EE58FE4F20818091C6
:1002B000310190E001968F7390708093310120930B
:1002C000C600FF91EF919F918F912F910F900FBEDC
:1002D0000F901F901895AF92BF92DF92EF92FF920E
:1002E0000F931F93CF93DF93EC017A018B01DD24F1
:1002F000403081EE580780E0680780E0780711F011
:10030000DD24D39491E0A92EB12CE889F989DD2070
:1003100069F0C5010C8C02C0880F991F0A94E2F79E
:10032000808360E079E08DE390E005C0108260E8B2
:1003300074E88EE190E0A80197010E945E052150CB
:10034000304040405040569547953795279580E17D
:100350002030380720F0DD2011F0DD24D6CFEC85E9
:10036000FD853083EE85FF8520831D8EEA89FB891C
:10037000408121E030E0C901088C02C0880F991F3C
:100380000A94E2F7482B4083EA89FB894081C9013E
:10039000098C02C0880F991F0A94E2F7482B40830A
:1003A000EA89FB894081C9010A8C02C0880F991F24
:1003B0000A94E2F7482B4083EA89FB8980810B8C01
:1003C00002C0220F331F0A94E2F7209528232083CE
:1003D000DF91CF911F910F91FF90EF90DF90BF9031
:1003E000AF900895FC01268D878D30E0205C3F4F53
:1003F000281B31092F733070C9010895FC01968DB7
:10040000878D981719F42FEF3FEF06C0878DE80FFF
:10041000F11D82A1282F30E0C9010895DC015E960C
:100420009C915E975F968C915F97981719F42FEFC8
:100430003FEF10C05F968C915F97FD01E80FF11DB3
:1004400092A15F968C915F978F5F8F735F968C936D
:10045000292F30E0C9010895DC015D968C915D97EC
:10046000882339F05096ED91FC915197808186FF59
:10047000F9CF5D961C920895DC0190968C9190972F
:10048000282F30E02F5F3F4F2F73307091968C9163
:10049000919790E028173907C9F390968C9190971F
:1004A000FD01E80FF11DEE59FF4F608390962C93EC
:1004B00090975296ED91FC915397208181E090E0C6
:1004C0005B960C905B9702C0880F991F0A94E2F725
:1004D000282B208381E05D968C935D975096ED915B
:1004E000FC91519780818064808381E090E0089541
:1004F000109213011092120188EE93E0A0E0B0E098
:100500008093140190931501A0931601B0931701E5
:1005100084E091E0909311018093100110923101D9
:10052000809131018093300110922F0180912F0131
:1005300080932E0185EC90E090931D0180931C0127
:1005400084EC90E090931F0180931E0180EC90E07A
:10055000909321018093200181EC90E090932301FE
:100560008093220182EC90E09093250180932401F6
:1005700086EC90E0909327018093260184E080939D
:10058000280183E08093290187E080932A0185E098
:1005900080932B0181E080932C010895CF92DF920C
:1005A000EF92FF920F931F93CF93DF937C016B0128
:1005B0008A01C0E0D0E00FC0D6016D916D01D70176
:1005C000ED91FC910190F081E02DC7010995C80FD4
:1005D000D91F015010400115110571F7CE01DF91AF
:1005E000CF911F910F91FF90EF90DF90CF900895E2
:1005F000CF93DF930E9459030E94D600CBE2D1E053
:100600000E94B0002097E1F30E942B01F9CF1F92C6
:100610000F920FB60F9211242F933F938F939F93B6
:10062000AF93BF938091B6019091B701A091B801AB
:10063000B091B9013091BA010196A11DB11D232FCE
:100640002D5F2D3720F02D570196A11DB11D209350
:10065000BA018093B6019093B701A093B801B0930B
:10066000B9018091B2019091B301A091B401B09110
:10067000B5010196A11DB11D8093B2019093B30104
:10068000A093B401B093B501BF91AF919F918F91A9
:100690003F912F910F900FBE0F901F9018950197CB
:1006A00039F0880F991F880F991F02970197F1F76A
:1006B0000895789484B5826084BD84B5816084BDDA
:1006C00085B5826085BD85B5816085BDEEE6F0E0CB
:1006D000808181608083E1E8F0E010828081826027
:1006E0008083808181608083E0E8F0E080818160A8
:1006F0008083E1EBF0E0808184608083E0EBF0E0D8
:10070000808181608083EAE7F0E08081846080837B
:100710008081826080838081816080838081806825
:1007200080831092C1000895EF92FF920F931F9360
:10073000CF93DF937B018C013FB7F8948091B20196
:100740009091B301A091B401B091B50126B5A89BD9
:1007500005C02F3F19F00196A11DB11D3FBFBA2F53
:10076000A92F982F8827820F911DA11DB11D52E03E
:10077000880F991FAA1FBB1F5A95D1F7EC0130C0F3
:100780000E942B053FB7F8948091B2019091B3017C
:10079000A091B401B091B50126B5A89B05C02F3F2B
:1007A00019F00196A11DB11D3FBFBA2FA92F982F97
:1007B0008827820F911DA11DB11D32E0880F991F5E
:1007C000AA1FBB1F3A95D1F78C1B9D0B885E9340E7
:1007D000B8F20894E108F10801091109C851DC4F89
:1007E000E114F1040105110559F6DF91CF911F9134
:1007F0000F91FF90EF900895CF93DF93482F50E033
:10080000CA0186569F4FFC0134914A575F4FFA0147
:100810008491882369F190E0880F991FFC01E859C1
:10082000FF4FA591B491FC01EE58FF4FC591D491B3
:10083000662351F42FB7F8948C91932F90958923C8
:100840008C93888189230BC0623061F42FB7F894B0
:100850008C91932F909589238C938881832B888307
:100860002FBF06C09FB7F8948C91832B8C939FBFAA
:10087000DF91CF910895482F50E0CA0182559F4FD4
:10088000FC012491CA0186569F4FFC0194914A575E
:100890005F4FFA013491332309F440C0222351F110
:1008A000233071F0243028F42130A1F0223011F5EA
:1008B00014C02630B1F02730C1F02430D9F404C080
:1008C000809180008F7703C0809180008F7D80931E
:1008D000800010C084B58F7702C084B58F7D84BD41
:1008E00009C08091B0008F7703C08091B0008F7DE8
:1008F0008093B000E32FF0E0EE0FFF1FEE58FF4FA4
:10090000A591B4912FB7F894662321F48C9190951A
:10091000892302C08C91892B8C932FBF08958F92CD
:100920009F92AF92BF92CF92DF92EF92FF920F937E
:100930001F93CF93DF93A82FB0E0CD0186569F4F32
:10094000FC018490AA57BF4FFD018491662311F4E6
:10095000992401C0982C6FEFA62E6FEFB62E6FEF83
:10096000C62E6FE0D62EA222B322C422D522682F33
:1009700070E0660F771F64587F4FEE24FF248701D5
:10098000FB01A591B4910BC0EA14FB040C051D05F5
:1009900009F44EC00894E11CF11C011D111D8C913D
:1009A0008821891589F30CC0EA14FB040C051D0588
:1009B00009F43EC00894E11CF11C011D111D03C087
:1009C000FB01A591B4918C918821891569F720E0EC
:1009D00030E040E050E0FB01C591D4910FC0DA0156
:1009E000C9018E0D9F1DA01FB11F8A159B05AC0567
:1009F000BD05F1F02F5F3F4F4F4F5F4F888188213A
:100A0000891569F3CA01B90125E130E040E050E001
:100A10000E942C059B01AC01205F3F4F4F4F5F4F61
:100A200084E056954795379527958A95D1F704C068
:100A300020E030E040E050E0B901CA01DF91CF9101
:100A40001F910F91FF90EF90DF90CF90BF90AF90EC
:100A50009F908F9008950895629FD001739FF00139
:100A6000829FE00DF11D649FE00DF11D929FF00D3E
:100A7000839FF00D749FF00D659FF00D9927729F75
:100A8000B00DE11DF91F639FB00DE11DF91FBD0100
:100A9000CF011124089597FB092E07260AD077FD70
:100AA00004D02ED006D000201AF4709561957F4FA7
:100AB0000895F6F7909581959F4F0895A1E21A2E1B
:100AC000AA1BBB1BFD010DC0AA1FBB1FEE1FFF1FF2
:100AD000A217B307E407F50720F0A21BB30BE40B42
:100AE000F50B661F771F881F991F1A9469F7609589
:100AF0007095809590959B01AC01BD01CF01089543
:100B0000AA1BBB1B51E107C0AA1FBB1FA617B70733
:100B100010F0A61BB70B881F991F5A95A9F780954F
:100B20009095BC01CD010895EE0FFF1F0590F49143
:080B3000E02D0994F894FFCFB9
:100B3800000000003C02CE02F2010E02FE012C026F
:00000001FF
