:100000000C9462000C948A000C948A000C948A0070
:100010000C948A000C948A000C948A000C948A0038
:100020000C948A000C948A000C948A000C948A0028
:100030000C948A000C948A000C948A000C948A0018
:100040000C9404040C948A000C94DC000C9423019E
:100050000C948A000C948A000C948A000C948A00F8
:100060000C948A000C948A000000000024002700F1
:100070002A0000000000250028002B0000000000DE
:1000800023002600290004040404040404040202DA
:100090000202020203030303030301020408102007
:1000A0004080010204081020010204081020000012
:1000B0000007000201000003040600000000000029
:1000C0000000600211241FBECFEFD8E0DEBFCDBF1D
:1000D00011E0A0E0B1E0E4E3FBE002C005900D9286
:1000E000A631B107D9F711E0A6E1B1E001C01D9238
:1000F000A13CB107E1F710E0C4ECD0E004C02297C6
:10010000FE010E949405C23CD107C9F70E94F50385
:100110000C9498050C940000CF92DF92EF92FF921E
:100120000F931F9385E10E94EF048C0184E10E94EC
:10013000EF046C0186E1E82E81E0F82EC701B801DA
:100140004AE050E00E94C003C70160E071E00E94F5
:10015000F203C701B6014AE050E00E94D30364EF06
:1001600071E080E090E00E9487041F910F91FF9062
:10017000EF90DF90CF90089564EF71E080E090E021
:100180000E94870486E191E040E855E260E070E07B
:100190000E94530184E160E00E94110585E160E066
:1001A0000E94110580E161E00E94110581E161E09A
:1001B0000E941105089508951F920F920FB60F9295
:1001C00011242F933F934F938F939F93EF93FF931C
:1001D0008091C00082FD19C04091C6008091340119
:1001E000282F30E02F5F3F4F2F7330708091350103
:1001F00090E02817390759F0E0913401F0E0EA5E09
:10020000FE4F42A32093340102C08091C600FF91AB
:10021000EF919F918F914F913F912F910F900FBE32
:100220000F901F901895809134012091350190E036
:10023000805C9F4F821B91098F739070892B11F006
:100240000E94DB0008951F920F920FB60F921124A7
:100250002F938F939F93EF93FF939091360180910B
:100260003701981731F48091C1008F7D8093C100D0
:1002700010C0E0913701F0E0E858FE4F20818091F6
:10028000370190E001968F7390708093370120932F
:10029000C600FF91EF919F918F912F910F900FBE0C
:1002A0000F901F901895AF92BF92DF92EF92FF923E
:1002B0000F931F93CF93DF93EC017A018B01DD2421
:1002C000403081EE580780E0680780E0780711F041
:1002D000DD24D39491E0A92EB12CE889F989DD20A1
:1002E00069F0C5010C8C02C0880F991F0A94E2F7CF
:1002F000808360E079E08DE390E005C0108260E8E3
:1003000074E88EE190E0A80197010E9470052150E9
:10031000304040405040569547953795279580E1AD
:100320002030380720F0DD2011F0DD24D6CFEC8519
:10033000FD853083EE85FF8520831D8EEA89FB894C
:10034000408121E030E0C901088C02C0880F991F6C
:100350000A94E2F7482B4083EA89FB894081C9016E
:10036000098C02C0880F991F0A94E2F7482B40833A
:10037000EA89FB894081C9010A8C02C0880F991F54
:100380000A94E2F7482B4083EA89FB8980810B8C31
:1003900002C0220F331F0A94E2F7209528232083FE
:1003A000DF91CF911F910F91FF90EF90DF90BF9061
:1003B000AF900895FC01268D878D30E0205C3F4F83
:1003C000281B31092F733070C9010895FC01968DE7
:1003D000878D981719F42FEF3FEF06C0878DE80F30
:1003E000F11D82A1282F30E0C9010895DC015E963D
:1003F0009C915E975F968C915F97981719F42FEFF9
:100400003FEF10C05F968C915F97FD01E80FF11DE3
:1004100092A15F968C915F978F5F8F735F968C939D
:10042000292F30E0C9010895DC015D968C915D971C
:10043000882339F05096ED91FC915197808186FF89
:10044000F9CF5D961C920895DC0190968C9190975F
:10045000282F30E02F5F3F4F2F73307091968C9193
:10046000919790E028173907C9F390968C9190974F
:10047000FD01E80FF11DEE59FF4F608390962C931C
:1004800090975296ED91FC915397208181E090E0F6
:100490005B960C905B9702C0880F991F0A94E2F755
:1004A000282B208381E05D968C935D975096ED918B
:1004B000FC91519780818064808381E090E0089571
:1004C000109219011092180188EE93E0A0E0B0E0BC
:1004D00080931A0190931B01A0931C01B0931D01FE
:1004E00089E091E0909317018093160110923701F3
:1004F000809137018093360110923501809135014A
:100500008093340185EC90E0909323018093220145
:1005100084EC90E0909325018093240180EC90E09E
:10052000909327018093260181EC90E0909329011C
:100530008093280182EC90E090932B0180932A0114
:1005400086EC90E090932D0180932C0184E08093C1
:100550002E0183E080932F0187E08093300185E0B6
:100560008093310181E0809332010895CF92DF9230
:10057000EF92FF920F931F93CF93DF937C016B0158
:100580008A01C0E0D0E00FC0D6016D916D01D701A6
:10059000ED91FC910190F081E02DC7010995C80F04
:1005A000D91F015010400115110571F7CE01DF91DF
:1005B000CF911F910F91FF90EF90DF90CF90089512
:1005C000EF92FF920F931F938C01DC01ED91FC9150
:1005D0000190F081E02D6DE009957C01D801ED914D
:1005E000FC910190F081E02DC8016AE009959C0121
:1005F0002E0D3F1DC9011F910F91FF90EF9008959F
:10060000CF93DF93EC016115710519F420E030E020
:100610000FC0DB010D900020E9F71197A61BB70B67
:10062000E881F9810280F381E02DAD0109959C01FB
:10063000C901DF91CF9108954F925F927F928F927F
:100640009F92AF92BF92CF92DF92EF92FF920F9361
:100650001F93DF93CF93CDB7DEB7A1970FB6F89472
:10066000DEBF0FBECDBF2C01742ECB01223008F4AB
:100670002AE019A231E2C32ED12CCC0EDD1E822E2F
:100680009924AA24BB24672D752FA50194010E94EB
:10069000700579018A01C801B701A50194010E9482
:1006A0005105472D461B0894C108D1084A3014F45F
:1006B000405D01C0495CF6014083E114F10401058D
:1006C000110521F07E2C5F2DC801DDCFC201B601DE
:1006D0000E940003A1960FB6F894DEBF0FBECDBFF7
:1006E000CF91DF911F910F91FF90EF90DF90CF900E
:1006F000BF90AF909F908F907F905F904F900895A4
:10070000CF92DF92EF92FF920F931F93CF93DF93DD
:10071000EC016A017B012115310541F4E881F98181
:100720000190F081E02D642F09951FC02A3031051A
:10073000D1F477FF17C0E881F9810190F081E02DB5
:100740006DE209958C0144275527BA014C195D09C2
:100750006E097F09CE012AE00E941C039801280F30
:10076000391F04C02AE00E941C039C01C901DF91CB
:10077000CF911F910F91FF90EF90DF90CF90089550
:10078000EF92FF920F931F937B019A010027F7FCD2
:100790000095102FB801A7010E9480031F910F91AF
:1007A000FF90EF900895CF92DF92EF92FF920F9318
:1007B0001F936C017B019A010027F7FC0095102F15
:1007C000B801A7010E9480038C01C6010E94E002CB
:1007D000080F191FC8011F910F91FF90EF90DF9034
:1007E000CF9008950E9400030895CF93DF930E9455
:1007F0004C040E94BC00C3E1D1E00E948C00209711
:10080000E1F30E941301F9CF1F920F920FB60F92DE
:1008100011242F933F938F939F93AF93BF93809116
:10082000BC019091BD01A091BE01B091BF0130917A
:10083000C0010196A11DB11D232F2D5F2D3720F082
:100840002D570196A11DB11D2093C0018093BC01BD
:100850009093BD01A093BE01B093BF018091B801F8
:100860009091B901A091BA01B091BB010196A11D6F
:10087000B11D8093B8019093B901A093BA01B093D0
:10088000BB01BF91AF919F918F913F912F910F909D
:100890000FBE0F901F901895789484B5826084BD28
:1008A00084B5816084BD85B5826085BD85B5816074
:1008B00085BDEEE6F0E0808181608083E1E8F0E0D4
:1008C0001082808182608083808181608083E0E803
:1008D000F0E0808181608083E1EBF0E080818460E2
:1008E0008083E0EBF0E0808181608083EAE7F0E0E4
:1008F0008081846080838081826080838081816048
:1009000080838081806880831092C1000895EF9277
:10091000FF920F931F93CF93DF937B018C013FB71F
:10092000F8948091B8019091B901A091BA01B09169
:10093000BB0126B5A89B05C02F3F19F00196A11D4C
:10094000B11D3FBFBA2FA92F982F8827820F911D65
:10095000A11DB11D52E0880F991FAA1FBB1F5A95F8
:10096000D1F7EC0130C00E9450053FB7F894809158
:10097000B8019091B901A091BA01B091BB0126B51F
:10098000A89B05C02F3F19F00196A11DB11D3FBFC7
:10099000BA2FA92F982F8827820F911DA11DB11D55
:1009A00032E0880F991FAA1FBB1F3A95D1F78C1B05
:1009B0009D0B885E9340B8F20894E108F1080109A4
:1009C0001109C851DC4FE114F1040105110559F674
:1009D000DF91CF911F910F91FF90EF900895982F85
:1009E0008E3008F09E509770809104018295880F98
:1009F000880F807C892B80937C0080917A008064B2
:100A000080937A0080917A0086FDFCCF2091780057
:100A100040917900942F80E030E0282B392BC901D8
:100A20000895CF93DF93482F50E0CA0186569F4F19
:100A3000FC0134914A575F4FFA018491882369F190
:100A400090E0880F991FFC01E859FF4FA591B491E0
:100A5000FC01EE58FF4FC591D491662351F42FB796
:100A6000F8948C91932F909589238C938881892376
:100A70000BC0623061F42FB7F8948C91932F90954E
:100A800089238C938881832B88832FBF06C09FB7CF
:100A9000F8948C91832B8C939FBFDF91CF91089515
:100AA0000895629FD001739FF001829FE00DF11DB8
:100AB000649FE00DF11D929FF00D839FF00D749FD8
:100AC000F00D659FF00D9927729FB00DE11DF91F84
:100AD000639FB00DE11DF91FBD01CF0111240895E1
:100AE000A1E21A2EAA1BBB1BFD010DC0AA1FBB1F32
:100AF000EE1FFF1FA217B307E407F50720F0A21BA4
:100B0000B30BE40BF50B661F771F881F991F1A9410
:100B100069F760957095809590959B01AC01BD013A
:100B2000CF010895EE0FFF1F0590F491E02D099479
:040B3000F894FFCF67
:100B3400202D200001000000002402B602DA01F694
:060B440001E601140200AD
:00000001FF
