:100000000C945C000C9479000C9479000C947900A9
:100010000C9479000C9479000C9479000C9479007C
:100020000C9479000C9479000C9479000C9479006C
:100030000C9479000C9479000C9479000C9479005C
:100040000C949F000C9479000C9479000C94790026
:100050000C9479000C9479000C9479000C9479003C
:100060000C9479000C947900000000080002010053
:100070000003040700000000000000000102040863
:100080001020408001020408102001020408102002
:10009000040404040404040402020202020203032E
:1000A0000303030300000000250028002B000000CC
:1000B0000000240027002A0011241FBECFEFD8E043
:1000C000DEBFCDBF11E0A0E0B1E0ECE7F3E002C09D
:1000D00005900D92A430B107D9F721E0A4E0B1E07A
:1000E00001C01D92AD30B207E1F70E9490000C9460
:1000F000BC010C94000061E0809102010E944D015E
:1001000061E0809100010C944D0161E08091020159
:100110000E94860161E0809100010C94860108959F
:100120000E94E9000E948F000E947B00C0E0D0E0A6
:100130000E9485002097E1F30E940000F9CF1F92F2
:100140000F920FB60F9211242F933F938F939F938B
:10015000AF93BF938091050190910601A091070193
:10016000B09108013091040123E0230F2D3720F4D2
:100170000196A11DB11D05C026E8230F0296A11D01
:10018000B11D209304018093050190930601A09373
:100190000701B09308018091090190910A01A09193
:1001A0000B01B0910C010196A11DB11D80930901B5
:1001B00090930A01A0930B01B0930C01BF91AF91F2
:1001C0009F918F913F912F910F900FBE0F901F9095
:1001D0001895789484B5826084BD84B5816084BDAF
:1001E00085B5826085BD85B5816085BDEEE6F0E0B0
:1001F000808181608083E1E8F0E01082808182600C
:100200008083808181608083E0E8F0E0808181608C
:100210008083E1EBF0E0808184608083E0EBF0E0BC
:10022000808181608083EAE7F0E080818460808360
:10023000808182608083808181608083808180680A
:1002400080831092C1000895833081F028F48130BA
:1002500099F08230A1F008958730A9F08830B9F084
:100260008430D1F4809180008F7D03C08091800024
:100270008F7780938000089584B58F7702C084B50E
:100280008F7D84BD08958091B0008F7703C08091E9
:10029000B0008F7D8093B0000895CF93DF9390E0FE
:1002A000FC01E458FF4F2491FC01E057FF4F84917B
:1002B000882349F190E0880F991FFC01E255FF4F18
:1002C000A591B4918C559F4FFC01C591D4919FB7D6
:1002D000611108C0F8948C91209582238C938881B9
:1002E00082230AC0623051F4F8948C91322F3095F9
:1002F00083238C938881822B888304C0F8948C910B
:10030000822B8C939FBFDF91CF9108950F931F9302
:10031000CF93DF931F92CDB7DEB7282F30E0F901DE
:10032000E859FF4F8491F901E458FF4F1491F90106
:10033000E057FF4F04910023C9F0882321F069831F
:100340000E9424016981E02FF0E0EE0FFF1FEC55C1
:10035000FF4FA591B4919FB7F8948C91611103C0A0
:100360001095812301C0812B8C939FBF0F90DF914B
:0C037000CF911F910F910895F894FFCFDA
:04037C0006000D006A
:00000001FF
